:20020000208B02209F02A000A9E08D0110B902208D0210B942208D0310B982208D04102058
:200220006602C8CC0120D0E520B10220B1024C030200AD001729BF8D0017A208AD00102915
:20024000800D00178D0017AD001749408D00170E0010AD001749408D0017AD0017297F8D5D
:200260000017CAD0D760AD01108D0010203202AD02108D0010203202AD03108D0010203288
:2002800002AD04108D001020320260D8A9008D0017A9FF8D0117AD001729BF8D001760A97F
:2002A000008D01108D02108D03108D041020660260A9FF8D01108D02108D03108D04102092
:0302C00066026073
:20200000E03FBC92603334393833B1926C3F3C403D358D73654B40423F356E564B47444389
:202020003F33503D373C44433D2F342729354240382A1A1924344B412E240A15283C595306
:202040002E1E00000100000000000000000000000000000001000000000000010100000030
:2020600000000100000000000000000000000000000000000000010000000100000001015B
:2020800000000000000000000000000000000000000001000000000000000000000000003F
:2020A00000000000000000000000000000000000000000000000000000000100000000001F
:0220C00000001E
:00000001FF
